:020000007D2F52
:100006000F3083120313FC004730FD00FD0B092857
:0A001600FC0B0928000000000800A0
:0E002000213083120313FD00FD0B142808008D
:06002E00000000000800C4
:10003400FB14FB1F2428FF30F300F200F100F00052
:08004400FA0DF20CFF30080078
:08004C00FA1FF2130030080056
:100054007B15FB1F34280130F300F201F101F0019C
:08006400FA0DF20CFF30080058
:10006C0083160313A31B3D28831286133F28831288
:10007C0086178316231B45288312061347288312E1
:10008C0006178316A31A4D28831286124F28831243
:10009C0086168316231A55288312061257288312A4
:1000AC00061650185B2886145C2886100614172038
:1000BC0006108316A31965288312861367288312EA
:1000CC008617831623196D28831206136F28831243
:1000DC0006178316A31875288312861277288312A5
:1000EC008616831623187D28831206127F28831206
:1000FC000616501883288614842886100614172098
:0E010C000610501C8B2803208C2810200800A1
:10011A0083120313F801F9011030FC00710DF80D78
:10012A00F90D7408F8027508031C750FF902031813
:10013A00A5287408F80775080318750FF90703103E
:0A014A00F00DF10DFC0B93280800E6
:0E015400F201F101F001F801F30100300800A2
:1001620083120313FA017308031D7A147708031D1F
:10017200FA147A080319FD28033A0319C8287A18D1
:10018200C528F61FFB28F928F21FF928FB28720858
:100192008039FA00F21376088039F6137A060319C9
:1001A200D6287A080319F928FB287708730203195D
:1001B200DD28031CF128F528760872020319E428C9
:1001C200031CF128F528750871020319EB28031C9A
:1001D200F128F528740870020319FD280318F52880
:1001E200FA080319FB28F928FA080319F928FB2849
:1001F2000314080003100800031403150800080084
:1002020083120313FD01F801700803190034740608
:10021200FA00FA1BFD09FB01F41F1129F409F40A83
:10022200F01F1529F009F00A70087404FA00FA1B8D
:1002320039297408F802F00D700DF80D7408F807EA
:10024200F00D0630FC00700DF80D74087018F802FD
:10025200701CF807F00DFC0B2429701CF8077B18A2
:100262004729FD1F0034F009F00AF809F80A0034A2
:10027200F41F4429F01B41297008F800F0013229CB
:10028200F001F00A0034F009FB0A1A29F80A74088E
:100292007802031D3229F801F00AF01F3229FF34D7
:0202A200080052
:1002A40083120313EE0105306E02031862296E08EF
:1002B400831622078400203080008312EE0A552919
:1002C4006E0883162207840080018312EE036E08F1
:1002D400831622078312EF000A30F400F501831617
:1002E4002008F0002108F1008D207808F00079083A
:1002F400F1003030F0076F088400700880000A3085
:10030400F400F50183162008F0002108F1008D2087
:1003140070088316A0007108A10000307106031D47
:10032400952900307006031D98299B298312EE033A
:04033400692908002B
:1003380083120313FB017308031D77080319F329BC
:1003480072087606FA007708F3077E30031CB02996
:10035800F3020318F629B329F302031CF9297208DA
:10036800F8007108FC007008FD00F817F617031074
:10037800F201F101F0011830A0007D1CCD297408AC
:10038800F00775080318750FF10776080318760F3C
:10039800F207F20CF10CF00CF80CFC0CFD0C03103D
:1003A800A00BC129F21BDD29F80DF00DF10DF20D9E
:1003B800F3037B1B701CEF29F81FEF29F00A0319C0
:1003C800F10A0319F20A031DEF29F20CF10CF00CE3
:1003D800F30A0319F629FA1FF2130030FB2901303A
:1003E800AA20FB2902301A20FB2904302A20000009
:0203F8000800FB
:0603FA00FB15FF300800B6
:10040000A0017208031D152A7108F2007008F1009E
:10041000F001A0157208031D152A7108F200F10100
:10042000A011201672080319232A2008F302031DC5
:10043000031C272A0310F21B2B2AF00DF10DF20DDD
:10044000F30B1B2A272A0130FC00AA202E2A023097
:0E045000FC002A202E2A0430FC002620080082
:10045E00831203136E08F2007208F100F20A6F089D
:10046E00F000EF0A700884000008F00071088400A4
:10047E00700880007108840000080319472A332A87
:06048E006E08F0000800FA
:100494008312031350106E088316A30036205014E1
:0204A40008004E
:1004A60083120313E201620861078400000803193E
:1004B600642A6208610784000008EE004A22E20A04
:0404C600562A0800AA
:1004CA008316031306108610061286120613861365
:1004DA00831206108610861306138612061203204C
:1004EA00032003208616061606141720061003207A
:1004FA0006141720061003200614172006100320DE
:10050A0006120614172006100320061417200610D8
:10051A00861286170614172006100320861306165D
:10052A0006141720061006120614172006100320B8
:10053A0006141720061006160614172006100320A4
:10054A0006120614172006108617061786160616B0
:0C055A000614172006100320501408009F
:1005660083120313E601E7016108E8006208E90067
:1005760080306206F00080307002031DC42A00300D
:1005860061020318D22A0130E6000030E700610854
:10059600003CE8006208031C013EE901E902680824
:1005A6008316A000831269088316A10083126308CC
:1005B6008316A2005221063083120313E400003092
:1005C600E5006508003C031DEA2A6408003C0318A0
:1005D600052B64086307F20001306402F000003066
:1005E600031C013E6502F1007008630784000008E1
:1005F600F00072088400700880000130E402031CD9
:10060600E503E42A63088400203080006608670456
:100616000319232BE401E50164086307840000083D
:10062600203A031D1A2BE40A0319E50A0F2B0130A1
:10063600E402031CE5036408630784002D30800090
:020646000800AA
:10064800831203137408003A031D3F2B7508003A00
:10065800031D3F2B7608003A031D3F2B7708003A0D
:10066800031D3F2BFF30F000FF30F1007F30F20018
:10067800FF30F300DA2B8312031377080319CE2B0C
:1006880073080319D12B720876068039FA00F2171D
:10069800F617A0017208F8007108FC007008FD0048
:1006A8007408FD027508031C750FFC027608031C0C
:1006B800760FF802F801FC01FD01031C6A2B0310F8
:1006C800F20CF10CF00CF80C0130A0007708F302E2
:1006D800031C742B7E302007F3070318D42B792BC7
:1006E8007E302007F307031CD72B1830FA07FD0DBF
:1006F800FC0DF80DF00DF10DF20DA00D7408F002CF
:100708007508031C750FF1027608031C760FF202B8
:10071800760DA004201C922B7D149D2B7408F007E5
:1007280075080318750FF10776080318760AF2079B
:100738007D10FA031F307A05031D7B2B7B1B7D1C64
:10074800C42B0310F00DF10DF20DA00D7408F0028A
:100758007508031C750FF1027608031C760FF20268
:10076800760D20040139FD070318FC0A0319F80A5D
:10077800031DC42BF80CFC0CFD0CF30A0319D42B35
:10078800FA1FF8137808F2007C08F1007D08F000E1
:100798000030D92B0130FD21D92B0230AA20D92BCA
:0E07A80004301A20D92B08302A200000080047
:1007B60083120313EC01ED016108E8006208E90009
:1007C6006308EA006408EB006B08FF3A031DF52B8B
:1007D6006A08FF3A031DF52B6908FF3A031DF52B3E
:1007E6006808FF3A031DFF2B6508EE004430EF0052
:1007F6002F220330F000D82D0130E600EA1F0E2C20
:1008060080306A06F0007008EA00E60A650884008F
:100816002D308000E50A0030F0006B06031D1D2C0C
:1008260070086A06031D1D2C70086906031D1D2C21
:100836006808003A031D262C6508EE004C30EF00D0
:100846002F22F001D82D6B08FF3A031D342C6A08BD
:10085600003A031D342C6908003A031D342C68083D
:10086600003A031D3E2C6508EE004830EF002F22AB
:100876006608F000D82D0030F4000030F500003096
:10088600F6007F30F7006808F0006908F1006A0892
:10089600F2006B08F300B120013003180030F000BD
:1008A60070080319712C6808F0006908F1006A08DD
:1008B600F2006B08F3000030F4000030F500203041
:1008C600F6008230F7009C217008E8007108E90004
:1008D6007208EA007308EB00ED033E2C0030F400CA
:1008E6000030F5002030F6008230F7006808F0008E
:1008F6006908F1006A08F2006B08F300B1200130C4
:10090600031C0030F00070080319A42C6808F000DE
:100916006908F1006A08F2006B08F300CD30F400B4
:10092600CC30F5004C30F6007B30F7009C21700887
:10093600E8007108E9007208EA007308EB00ED0AA6
:10094600712CFF306805F800FF306905F9007F302B
:100956006A05FA0000306B05FB007808F400790898
:10096600F5007A08F6007B08F700F40DF50DF60D94
:10097600F70D741000306805F00000306905F100CD
:1009860000306A05F200FF306B05F3007008E800DE
:100996007108E9007208EA007308EB00740868043D
:1009A600F00075086904F10076086A04F200770819
:1009B6006B04F3007008E8007108E9007208EA00A9
:1009C6007308EB007F306B02F0007008E70001301F
:1009D600EB007008F4006808F0006908F1006A0886
:1009E600F2006B08F30074080319002DF00DF10DE9
:1009F600F20DF30D7010FF3EF72C7008E800710839
:100A0600E9007208EA007308EB006B08303EF0005C
:100A16006508840070088000E50A80306D06F000E5
:100A26008030013A7002031C212D8030063AF00016
:100A360080306D067002031C212D282D6508840068
:100A46002E308000E50A0130EC000630E70067082A
:100A5600003A0319862DEB016808F0006908F100D9
:100A66006A08F2006B08F300F00DF10DF20DF30DBC
:100A76007010F00DF10DF20DF30D70106808F0070F
:100A860069080318690FF1076A0803186A0FF20765
:100A96006B0803186B0FF3077008E8007108E9008C
:100AA6007208EA007308EB006808F0006908F100B4
:100AB6006A08F2006B08F300F00DF10DF20DF30D6C
:100AC60070107008E8007108E9007208EA007308FF
:100AD600EB006B08303EF00065088400700880006B
:100AE600E50A6C08003A031D842DED036D08003AF3
:100AF600031D842D650884002E308000E50A013030
:100B0600EC00E7032A2DFF30650784000008303A21
:100B1600031D8F2DE503862DFF3065078400000831
:100B26002E3A031D972DE5036D08003A0319D42DBF
:100B36006508840065308000E50A80306D06F000A7
:100B46008030003A70020318B02D650884002D30FD
:100B56008000E50A6D08003CED006D08E700803076
:100B6600093AF00080306D0670020318C62D0A306F
:100B7600F4006708F00001213030F00765088400B2
:100B860070088000E50A0A30F4006708F0000121C9
:100B96007808F0003030F00765088400700880009F
:0C0BA600E50A650884008001F0010800E9
:0E0BB200831203134F088A004E0882000800C9
:100BC000F22D803083120313E100052EC030E100C6
:100BD000052E9430E100052ED430E100052E803042
:100BE000E100052E831203136108013A0319E12D78
:100BF0006108023A0319E62D6108033A0319E92D49
:100C00006108043A0319EC2DEF2D6203F00061082E
:100C1000F0077008E10070088316A300362050101A
:100C2000E401640863078400000803191F2E6408A8
:100C3000630784000008EE004A22E40A112E5014D3
:020C40000800AA
:100C4200831203137008F8007108F000F101F20139
:100C5200F301FB01FC019630F300FA017008F10088
:0C0C62007808F000F801F2010022080000
:100C6E00831203136208033C031D3F2E6108FF3CF1
:100C7E000318452EFF30E1000330E2006108F0005A
:100C8E006208F100F10CF00CF113F10CF00CF11301
:100C9E0070089B006108F0006208F100F10CF00C86
:100CAE00F1130130F00570185E2E9D105F2E9D140D
:100CBE0001306105F0007018662E1D10672E1D1490
:020CCE0008001C
:100CD00083120313FB01FA01F9018030F800F10CD3
:100CE000F00C031C7C2E7408F90775080318750FA7
:100CF000FA070318FB0A0310F01F842E7408FA0782
:100D000075080318750FFB07FB0CFA0CF90CF80CAF
:100D1000031C6F2E7B08F3007A08F2007908F100BB
:060D20007808F000080055
:100D2600013083120313E1000130E2002730E300B3
:100D3600E0252108E1002208E2005130E300B32259
:100D46005130E10053220230E1000130E2003F3031
:100D5600E300E0252308E1002408E2002508E3007B
:100D66002608E4005130E500DB23D6015130E100CE
:100D760053222C30E10053220330E1000130E2001F
:080D86002E30E300E025080017
:100D8E00FF308316031392000C3083129D00043043
:0A0D9E0092009101831687100800EF
:100DA80083120313071FFF2E4E30FC00EB30FD00AB
:100DB800FD0BDC2EFC0BDC2E0F302107F100220886
:100DC8000318013EF2007108A1007208A20072081F
:100DD800033C031DF12E7108FF3C0318F72EFF306A
:100DE800A1000330A2002108E1002208E200372612
:100DF800071FFF2EFC2E871F222F4E30FC00EB30E2
:100E0800FD00FD0B052FFC0B052F871F222F00303F
:100E18002202031D112F0A302102031C182F0F3044
:100E2800A102031CA2031A2FA101A2012108E100BB
:0E0E38002208E2003726871F222F1F2F0800F6
:100E4600831203131F151F1D292F262F1E08F100BD
:100E5600F00183161E08F0070318F10A0530F400A6
:100E66000030F500682621260030F4000030F50039
:100E76000030F6008930F7002423CD30F400CC3062
:100E8600F5004C30F6007B30F70024230030F400E8
:100E96000030F5002030F6008230F70024230800E9
:100EA600652201308316A30036200C308316A3007A
:040EB60036200800DA
:100EBA00D9258A110A128000840ACE0A0319CF0A98
:080ECA00F003031D5D2F080079
:100ED2008030831603139F00413083129F008316D4
:100EE20005148230FC00DD30FD00FD0B762FFC0B7B
:080EF200762F0000000008004B
:100EFA00DC27831603130717871753276927C72683
:100F0A0083122108E1002208E20037260130831605
:100F1A00A30036200C308316A3003620D4262327BC
:100F2A007008A3007108A4007208A5007308A6003F
:100F3A0093268230FC00DD30FD00FD0BA22FFC0B56
:0A0F4A00A22F00000000932FA92F32
:100FB800213084002D3083120313F000AF30CE00AF
:080FC8000730CF005D2708008F
:040F5E0058340234CD
:080F62000034003400340034B7
:0A0F6A00503457344D343A3400344B
:040F740041340034D0
:100F7800533461346934663420344134623464341F
:100F880027346534733473346134793465346434A4
:020F9800003423
:0A0F9A004334553452343A34003425
:080FA4004E3461344E34003478
:080FAC0049344E344634003490
:040FB40030340034A1
:02400E004A2F37
:00000001FF
